:100000007F454C4601010100000000000000000097
:100010000200530001000000000000003400000056
:100020003C0F000005000000340020000300280001
:10003000070006000100000094000000000000001E
:1000400000000000CC0D0000CC0D000005000000F9
:100050000200000001000000600E000000018000AE
:10006000CC0D00004A0000004A000000060000001D
:100070000100000001000000AA0E00004A018000FB
:100080004A01800000000000450100000600000059
:10009000010000000C9462000C948A000C948A0009
:1000A0000C948A000C948A000C948A000C948A00A8
:1000B0000C948A000C948A000C948A000C948A0098
:1000C0000C948A000C948A000C948A000C948A0088
:1000D0000C948A000C9440050C948A000C940E0534
:1000E0000C94E8040C948A000C948A000C948A0006
:1000F0000C948A000C948A000C948A000000000082
:10010000240027002A0000000000250028002B0002
:100110000000000023002600290004040404040455
:1001200004040202020202020303030303030102A6
:100130000408102040800102040810200102040875
:100140001020000000080002010000030407000066
:100150000000000000008A0511241FBECFEFD8E088
:10016000DEBFCDBF11E0A0E0B1E0ECECFDE002C0ED
:1001700005900D92AA34B107D9F722E0AAE4B1E0C4
:1001800001C01D92AF38B207E1F710E0C2E6D0E03F
:1001900004C02197FE010E94D906C136D107C9F7D4
:1001A0000E9419060C94E4060C94000096E0899FC6
:1001B000D0011124A05EBD4F90967C936E935F9703
:1001C00091E091969C93919790918C02E0918D0291
:1001D000F0918E02992339F0309751F0811108C0C7
:1001E00080913C0204C0309719F05C968C91099480
:1001F0000895CF92DF92EF92FF920F931F93CF93C8
:10020000DF936C017A018B01C0E0D0E0CE15DF05F1
:1002100089F0D8016D918D01D601ED91FC9101908D
:10022000F081E02DC6010995892B11F47E0102C0F1
:100230002196ECCFC701DF91CF911F910F91FF90D5
:10024000EF90DF90CF900895089580E090E00895BA
:10025000FC01538D448D252F30E0842F90E0821BCC
:10026000930B541710F0CF96089501970895FC0151
:10027000918D828D981761F0828DDF01A80FB11DDD
:100280005D968C91928D9F5F9F73928F90E0089501
:100290008FEF9FEF0895FC01918D828D981731F0BB
:1002A000828DE80FF11D858D90E008958FEF9FEF0F
:1002B0000895FC01918D228D892F90E0805C9F4FE5
:1002C000821B91098F739927089583E891E00E941A
:1002D0000F0121E0892B09F420E0822F0895FC0111
:1002E000848DDF01A80FB11DA35ABF4F2C91848DBF
:1002F00090E001968F739927848FA689B7892C93F4
:10030000A089B1898C9180648C93938D848D98138E
:1003100006C00288F389E02D80818F7D8083089557
:10032000EF92FF920F931F93CF93DF93EC0181E045
:10033000888F9B8D8C8D981305C0E889F989808101
:1003400085FD24C0F62E0B8D10E00F5F1F4F0F733D
:100350001127E02E8C8DE8120CC00FB607FCFACFE7
:10036000E889F989808185FFF5CFCE010E942501BA
:10037000F1CF8B8DFE01E80FF11DE35AFF4FF082A4
:100380000B8FEA89FB898081806207C0EE89FF8933
:100390006083E889F98980818064808381E090E0CE
:1003A000DF91CF911F910F91FF90EF900895CF9320
:1003B000DF93EC01888D8823C9F0EA89FB8980816D
:1003C00085FD05C0A889B9898C9186FD0FC00FB63F
:1003D00007FCF5CF808185FFF2CFA889B9898C9180
:1003E00085FFEDCFCE010E942501E7CFDF91CF91B0
:1003F000089580E090E0892B29F00E941B01811173
:100400000C9400000895833081F028F4813099F035
:100410008230A1F008958730A9F08830B9F0843097
:10042000D1F4809180008F7D03C0809180008F7710
:1004300080938000089584B58F7702C084B58F7D46
:1004400084BD08958091B0008F7703C08091B00083
:100450008F7D8093B0000895CF93DF93282F30E0F5
:10046000F901E255FF4F8491F901E656FF4FD4910F
:10047000F901EA57FF4FC491CC2391F081110E94FA
:10048000B901EC2FF0E0EE0FFF1FE458FF4FA591EC
:10049000B491EC91ED2381E090E021F480E002C082
:1004A00080E090E0DF91CF9108951F93CF93DF9389
:1004B000282F30E0F901E255FF4F8491F901E6560B
:1004C000FF4FD491F901EA57FF4FC491CC23C9F0F3
:1004D000162F81110E94B901EC2FF0E0EE0FFF1FE3
:1004E000EE58FF4FA591B4918FB7F894111105C044
:1004F0009C91ED2FE095E92302C0EC91ED2BEC935C
:100500008FBFDF91CF911F910895CF93DF9390E03C
:10051000FC01E656FF4F2491FC01EA57FF4F8491FE
:10052000882361F190E0880F991FFC01E859FF4F83
:10053000C591D491FC01EE58FF4FA591B491611182
:1005400009C09FB7F8948881209582238883EC9115
:100550002E230BC0623061F49FB7F8943881822F4C
:10056000809583238883EC912E2B2C939FBF06C00C
:100570008FB7F894E8812E2B28838FBFDF91CF911E
:1005800008953FB7F8948091570190915801A09138
:100590005901B0915A0126B5A89B05C02F3F19F00B
:1005A0000196A11DB11D3FBFBA2FA92F982F8827F3
:1005B000820F911DA11DB11DBC01CD0142E0660F4E
:1005C000771F881F991F4A95D1F708952FB7F89480
:1005D00060915301709154018091550190915601A1
:1005E0002FBF08950F931F93CF93DF93C82FD62F5C
:1005F00086E0C89FF0011124E05EFD4F11A2878DB7
:1006000090A181309105F1F01CF4892B49F043C091
:1006100082309105A9F10397F1F560E070E034C0F4
:100620006623C9F161E070E08C2F0E948C000E946B
:100630009C02609378027093790280937A0290937F
:100640007B0229C00E949C020091780210917902DD
:1006500020917A0230917B02AB01BC01401B510B0F
:10066000620B730B80918A0290918B02A0E0B0E044
:1006700084179507A607B70718F462E070E004C076
:10068000D11109C063E070E08C2FDF91CF911F91F1
:100690000F910C948C00DF91CF911F910F910895D1
:1006A000862F0C94E201862F642F0C940B02862F68
:1006B000642F0C943B020E94DF062F923F924F92D0
:1006C0005F926F927F928F929F92AF92BF92CF92E2
:1006D000DF92EF92FF920F931F93CF93DF93E12C62
:1006E000F12C22242A94322C81E080938C020E94E7
:1006F0009C0200917C0210917D0220917E0230913B
:100700007F02AB01BC01401B510B620B730B80914C
:10071000880290918902A0E0B0E084179507A607AF
:10072000B70708F00AC1C0E080918602C81760F4DC
:10073000E0918202F0918302EC0FF11D62E0808172
:100740000E943B02CF5FF0CF912C809187029816D8
:1007500008F061C0092D10E0E0918402F09185025B
:10076000E00FF11F61E080810E943B02E091840272
:10077000F0918502E00FF11F60E080810E940B0282
:1007800081E090E0A0E0B0E0092C04C0880F991F40
:10079000AA1FBB1F0A94D2F75C016C01C094D094CD
:1007A000812C809186028816F8F4C82DD0E0E09163
:1007B0008202F0918302EC0FFD1F80810E94E20112
:1007C0002496CC0FDD1FC05EDD4F892B29F4888174
:1007D00099818A299B2904C0888199818C219D2136
:1007E000998388838394DDCFE0918402F091850220
:1007F000E00FF11F61E080810E940B028091840272
:1008000090918502FC01E00FF11F60E080810E9461
:100810003B0293949ACFECE3F2E083819481892B9D
:1008200021F41082328221821582369622E0E83746
:10083000F20799F710E036E0D32E80918602181760
:1008400008F053C000E0C12FD0E0CC0FDD1FC85D21
:10085000DD4F20918702021708F045C06881798139
:10086000002E02C0769567950A94E2F761707727AB
:10087000129F90011124200F311DE0918002F09110
:100880008102E20FF31FA081E0E2F2E080E0458DFB
:10089000568D4217530711F461701BC08F5F369657
:1008A0008A30A9F7672BE9F0ECE3F2E080E090E012
:1008B0004081411111C0D89EA001D99E500D112434
:1008C000FA01E05EFD4FA48F368F258F10A2178EA0
:1008D00061E00E94A80205C0019636968A30910513
:1008E00039F70F5FB6CF1F5FA8CF80E090E0C0E080
:1008F000FC01E05EFD4F21A12111C1E006968C3381
:100900009105B1F70E949C0260937C0270937D0276
:1009100080937E0290937F02CC2379F080914102F4
:10092000882359F080913F0290914002019729F469
:10093000C0913C02C11104C055C010928C0252C03B
:10094000E0918301F09184010190F081E02D6C2F02
:1009500083E891E009950C2E000CDD0B8701000F58
:10096000111FF801E85EFE4F80819181C817D907F9
:1009700089F14CE050E06CE371E083E891E00E9483
:10098000AF000E9477022B013C0180EB882E84E0AF
:10099000982EA12CB12C0E947702DC01CB01841986
:1009A0009509A609B709883E9340A105B10558F0FD
:1009B00081E0881A9108A108B10828EE420E23E0D0
:1009C000521E611C711C81149104A104B10419F719
:1009D0000E941303F801E65BFE4FD183C0838FEFC3
:1009E000E81AF80A80916E0190916F01EAE4F1E053
:1009F0006AE021913191689FA001699F500D1124F7
:100A0000CA01820F931F21E0E235F20791F790931C
:100A10006F0180936E01EBE5F1E001900020E9F7B2
:100A20003197AF014B5551406BE571E083E891E0A0
:100A30000E94AF0084E0E816F1040CF455CEDF917B
:100A4000CF911F910F91FF90EF90DF90CF90BF90CB
:100A5000AF909F908F907F906F905F904F903F905E
:100A60002F9008951F920F920FB60F9211242F937B
:100A70003F934F935F936F937F938F939F93AF9326
:100A8000BF93EF93FF9383E891E00E942501FF91CC
:100A9000EF91BF91AF919F918F917F916F915F91F6
:100AA0004F913F912F910F900FBE0F901F9018956F
:100AB0001F920F920FB60F9211242F938F939F9333
:100AC000EF93FF93E0919301F09194018081E09185
:100AD0009901F0919A0182FD12C0908180919C0150
:100AE0008F5F8F7320919D01821751F0E0919C01DF
:100AF000F0E0ED57FE4F958F80939C0101C08081FF
:100B0000FF91EF919F918F912F910F900FBE0F90BA
:100B10001F9018951F920F920FB60F9211242F93CA
:100B20003F938F939F93AF93BF9380915301909185
:100B30005401A0915501B09156013091520123E02A
:100B4000230F2D3720F40196A11DB11D05C026E805
:100B5000230F0296A11DB11D2093520180935301D2
:100B600090935401A0935501B09356018091570181
:100B700090915801A0915901B0915A010196A11D7F
:100B8000B11D8093570190935801A0935901B093E0
:100B90005A01BF91AF919F918F913F912F910F90EB
:100BA0000FBE0F901F90189510928601109285012C
:100BB00088EE93E0A0E0B0E08093870190938801F5
:100BC000A0938901B0938A0184E291E0909384011B
:100BD0008093830185EC90E09093900180938F0146
:100BE00084EC90E0909392018093910180EC90E0EE
:100BF000909394018093930181EC90E090939601FF
:100C00008093950182EC90E09093980180939701F6
:100C100086EC90E090939A018093990110929C0148
:100C200010929D0110929E0110929F01109222023B
:100C300010922602109225021092270286E391E07C
:100C4000909321028093200280E090E0FC01E05E1E
:100C5000FD4F148E10A2178E11A206968C339105AB
:100C6000A9F784E091E0909383028093820280E070
:100C700091E0909385028093840284E080938602C1
:100C80008093870288E091E09093810280938002B4
:100C90008AE090E0909389028093880284EF91E04B
:100CA00090938B0280938A0210928E0210928D0292
:100CB00010927C0210927D0210927E0210927F02AE
:100CC00010928C020895789484B5826084BD84B5B6
:100CD000816084BD85B5826085BD85B5816085BD37
:100CE00080916E00816080936E00109281008091EF
:100CF0008100826080938100809181008160809377
:100D00008100809180008160809380008091B1009B
:100D100084608093B1008091B00081608093B000C6
:100D200080917A00846080937A0080917A0082605A
:100D300080937A0080917A00816080937A0080911C
:100D40007A00806880937A001092C100E09193014C
:100D5000F091940182E08083E0918F01F091900105
:100D60001082E0919101F09192018FEC80831092BA
:100D70009B01E0919701F091980186E08083E091DA
:100D80009501F0919601808180618083E0919501C9
:100D9000F0919601808188608083E0919501F091C7
:100DA0009601808180688083E0919501F0919601A1
:100DB00080818F7D80838AEC809370018DEC80939D
:100DC000710180EC8093720127ED2093730185EC13
:100DD0008093740188ED8093750187E98093760193
:100DE00095EF9093770191ED909378019CEF90931C
:100DF000790132E830937A0130ED30937B013DEE9A
:100E000030937C0120937D0190937E0191EE90932D
:100E10007F018093800187EE809381018EED809326
:100E2000820190916E01E0E7F1E0ABE5B1E08191E4
:100E300089278D9381E0E338F807C9F70E941303EF
:100E40000E94AF01FBCFEE0FFF1F0590F491E02D44
:100E5000099481E090E0F8940C94E406F894FFCFB4
:100E6000060504030A090807313233413435364296
:100E7000373839432A3023440700030003000100B8
:100E8000000000004601AF00DE008D010F01ED0003
:100E90000101000000000D030903060350696E20E4
:100EA0006D69736D6174636800004743433A20289D
:100EB000474E552920342E392E3200000400000000
:100EC0002D0000000100000041565200000000000B
:100ED0000080000000010000000800000000000089
:100EE0000004000008000000010000000061746DB3
:100EF000656761333238700000000000002E7368AF
:100F0000737472746162002E64617461002E746582
:100F10007874002E627373002E636F6D6D656E744E
:100F2000002E6E6F74652E676E752E6176722E645C
:100F30006576696365696E666F00000000000000F9
:100F400000000000000000000000000000000000A1
:100F50000000000000000000000000000000000091
:100F6000000000000B000000010000000300000072
:100F700000018000600E00004A0000000000000038
:100F8000000000000100000000000000110000004F
:100F900001000000060000000000000094000000B6
:100FA000CC0D000000000000000000000200000066
:100FB000000000001700000008000000030000000F
:100FC0004A018000AA0E0000450100000000000058
:100FD0000000000001000000000000001C000000F4
:100FE000010000003000000000000000AA0E000018
:100FF00011000000000000000000000001000000DF
:1010000001000000250000000700000000000000B3
:1010100000000000BC0E00004000000000000000C6
:1010200000000000040000000000000001000000BB
:10103000030000000000000000000000FC0E0000A3
:101040003E00000000000000000000000100000061
:04105000000000009C
:00000001FF
